{
  "_format": "hh-sol-artifact-1",
  "contractName": "Todo",
  "sourceName": "contracts/Todo.sol",
  "abi": [
    {
      "inputs": [
        {
          "internalType": "string",
          "name": "_title",
          "type": "string"
        },
        {
          "internalType": "string",
          "name": "_description",
          "type": "string"
        }
      ],
      "name": "createNewTodo",
      "outputs": [],
      "stateMutability": "nonpayable",
      "type": "function"
    },
    {
      "inputs": [
        {
          "internalType": "uint256",
          "name": "_i",
          "type": "uint256"
        }
      ],
      "name": "deleteTodoItem",
      "outputs": [],
      "stateMutability": "nonpayable",
      "type": "function"
    },
    {
      "inputs": [
        {
          "internalType": "uint256",
          "name": "",
          "type": "uint256"
        }
      ],
      "name": "todoList",
      "outputs": [
        {
          "internalType": "string",
          "name": "title",
          "type": "string"
        },
        {
          "internalType": "string",
          "name": "description",
          "type": "string"
        },
        {
          "internalType": "bool",
          "name": "completed",
          "type": "bool"
        }
      ],
      "stateMutability": "view",
      "type": "function"
    },
    {
      "inputs": [
        {
          "internalType": "uint256",
          "name": "_i",
          "type": "uint256"
        }
      ],
      "name": "toggleCompleted",
      "outputs": [],
      "stateMutability": "nonpayable",
      "type": "function"
    },
    {
      "inputs": [
        {
          "internalType": "uint256",
          "name": "_i",
          "type": "uint256"
        },
        {
          "internalType": "string",
          "name": "_newDescription",
          "type": "string"
        }
      ],
      "name": "updateDescription",
      "outputs": [],
      "stateMutability": "nonpayable",
      "type": "function"
    },
    {
      "inputs": [
        {
          "internalType": "uint256",
          "name": "_i",
          "type": "uint256"
        },
        {
          "internalType": "string",
          "name": "_newTitle",
          "type": "string"
        }
      ],
      "name": "updateTitle",
      "outputs": [],
      "stateMutability": "nonpayable",
      "type": "function"
    }
  ],
  "bytecode": "0x608060405234801561001057600080fd5b50610b64806100206000396000f3fe608060405234801561001057600080fd5b50600436106100625760003560e01c806312f616a21461006757806314dee4b3146100835780631b660bfb1461009f578063455f5024146100bb5780635786ead2146100d757806358c2d469146100f3575b600080fd5b610081600480360381019061007c91906104fb565b610125565b005b61009d6004803603810190610098919061066e565b610181565b005b6100b960048036038101906100b491906106ca565b6101b8565b005b6100d560048036038101906100d091906104fb565b610253565b005b6100f160048036038101906100ec919061066e565b6102c6565b005b61010d600480360381019061010891906104fb565b6102fd565b60405161011c939291906107dc565b60405180910390f35b6000818154811061013957610138610821565b5b9060005260206000209060030201600080820160006101589190610454565b6001820160006101689190610454565b6002820160006101000a81549060ff0219169055505050565b806000838154811061019657610195610821565b5b906000526020600020906003020160010190816101b39190610a5c565b505050565b6000604051806060016040528084815260200183815260200160001515815250908060018154018082558091505060019003906000526020600020906003020160009091909190915060008201518160000190816102169190610a5c565b50602082015181600101908161022c9190610a5c565b5060408201518160020160006101000a81548160ff02191690831515021790555050505050565b6000818154811061026757610266610821565b5b906000526020600020906003020160020160009054906101000a900460ff16156000828154811061029b5761029a610821565b5b906000526020600020906003020160020160006101000a81548160ff02191690831515021790555050565b80600083815481106102db576102da610821565b5b906000526020600020906003020160000190816102f89190610a5c565b505050565b6000818154811061030d57600080fd5b90600052602060002090600302016000915090508060000180546103309061087f565b80601f016020809104026020016040519081016040528092919081815260200182805461035c9061087f565b80156103a95780601f1061037e576101008083540402835291602001916103a9565b820191906000526020600020905b81548152906001019060200180831161038c57829003601f168201915b5050505050908060010180546103be9061087f565b80601f01602080910402602001604051908101604052809291908181526020018280546103ea9061087f565b80156104375780601f1061040c57610100808354040283529160200191610437565b820191906000526020600020905b81548152906001019060200180831161041a57829003601f168201915b5050505050908060020160009054906101000a900460ff16905083565b5080546104609061087f565b6000825580601f106104725750610491565b601f0160209004906000526020600020908101906104909190610494565b5b50565b5b808211156104ad576000816000905550600101610495565b5090565b6000604051905090565b600080fd5b600080fd5b6000819050919050565b6104d8816104c5565b81146104e357600080fd5b50565b6000813590506104f5816104cf565b92915050565b600060208284031215610511576105106104bb565b5b600061051f848285016104e6565b91505092915050565b600080fd5b600080fd5b6000601f19601f8301169050919050565b7f4e487b7100000000000000000000000000000000000000000000000000000000600052604160045260246000fd5b61057b82610532565b810181811067ffffffffffffffff8211171561059a57610599610543565b5b80604052505050565b60006105ad6104b1565b90506105b98282610572565b919050565b600067ffffffffffffffff8211156105d9576105d8610543565b5b6105e282610532565b9050602081019050919050565b82818337600083830152505050565b600061061161060c846105be565b6105a3565b90508281526020810184848401111561062d5761062c61052d565b5b6106388482856105ef565b509392505050565b600082601f83011261065557610654610528565b5b81356106658482602086016105fe565b91505092915050565b60008060408385031215610685576106846104bb565b5b6000610693858286016104e6565b925050602083013567ffffffffffffffff8111156106b4576106b36104c0565b5b6106c085828601610640565b9150509250929050565b600080604083850312156106e1576106e06104bb565b5b600083013567ffffffffffffffff8111156106ff576106fe6104c0565b5b61070b85828601610640565b925050602083013567ffffffffffffffff81111561072c5761072b6104c0565b5b61073885828601610640565b9150509250929050565b600081519050919050565b600082825260208201905092915050565b60005b8381101561077c578082015181840152602081019050610761565b60008484015250505050565b600061079382610742565b61079d818561074d565b93506107ad81856020860161075e565b6107b681610532565b840191505092915050565b60008115159050919050565b6107d6816107c1565b82525050565b600060608201905081810360008301526107f68186610788565b9050818103602083015261080a8185610788565b905061081960408301846107cd565b949350505050565b7f4e487b7100000000000000000000000000000000000000000000000000000000600052603260045260246000fd5b7f4e487b7100000000000000000000000000000000000000000000000000000000600052602260045260246000fd5b6000600282049050600182168061089757607f821691505b6020821081036108aa576108a9610850565b5b50919050565b60008190508160005260206000209050919050565b60006020601f8301049050919050565b600082821b905092915050565b6000600883026109127fffffffffffffffffffffffffffffffffffffffffffffffffffffffffffffffff826108d5565b61091c86836108d5565b95508019841693508086168417925050509392505050565b6000819050919050565b600061095961095461094f846104c5565b610934565b6104c5565b9050919050565b6000819050919050565b6109738361093e565b61098761097f82610960565b8484546108e2565b825550505050565b600090565b61099c61098f565b6109a781848461096a565b505050565b5b818110156109cb576109c0600082610994565b6001810190506109ad565b5050565b601f821115610a10576109e1816108b0565b6109ea846108c5565b810160208510156109f9578190505b610a0d610a05856108c5565b8301826109ac565b50505b505050565b600082821c905092915050565b6000610a3360001984600802610a15565b1980831691505092915050565b6000610a4c8383610a22565b9150826002028217905092915050565b610a6582610742565b67ffffffffffffffff811115610a7e57610a7d610543565b5b610a88825461087f565b610a938282856109cf565b600060209050601f831160018114610ac65760008415610ab4578287015190505b610abe8582610a40565b865550610b26565b601f198416610ad4866108b0565b60005b82811015610afc57848901518255600182019150602085019450602081019050610ad7565b86831015610b195784890151610b15601f891682610a22565b8355505b6001600288020188555050505b50505050505056fea2646970667358221220707ae91cf8a1b95fa28d2af87e701038f35ec4448a2ed26180b351119aa93a3c64736f6c63430008180033",
  "linkReferences": {},
  "deployedLinkReferences": {}
}